{
  "_format": "hh-sol-artifact-1",
  "contractName": "CollegeCampaign",
  "sourceName": "contracts/CrowdFunding.sol",
  "abi": [
    {
      "inputs": [
        {
          "internalType": "uint256",
          "name": "_minimum",
          "type": "uint256"
        },
        {
          "internalType": "address",
          "name": "_student",
          "type": "address"
        },
        {
          "internalType": "string",
          "name": "_title",
          "type": "string"
        },
        {
          "internalType": "string",
          "name": "_description",
          "type": "string"
        },
        {
          "internalType": "string",
          "name": "_image",
          "type": "string"
        },
        {
          "internalType": "uint256",
          "name": "_target",
          "type": "uint256"
        },
        {
          "internalType": "string",
          "name": "_roll",
          "type": "string"
        },
        {
          "internalType": "address",
          "name": "factoryAddress",
          "type": "address"
        }
      ],
      "stateMutability": "nonpayable",
      "type": "constructor"
    },
    {
      "inputs": [
        {
          "internalType": "uint256",
          "name": "index",
          "type": "uint256"
        }
      ],
      "name": "approveRequest",
      "outputs": [],
      "stateMutability": "nonpayable",
      "type": "function"
    },
    {
      "inputs": [],
      "name": "contribute",
      "outputs": [],
      "stateMutability": "payable",
      "type": "function"
    },
    {
      "inputs": [
        {
          "internalType": "address",
          "name": "",
          "type": "address"
        }
      ],
      "name": "contributors",
      "outputs": [
        {
          "internalType": "bool",
          "name": "",
          "type": "bool"
        }
      ],
      "stateMutability": "view",
      "type": "function"
    },
    {
      "inputs": [],
      "name": "contributorsCount",
      "outputs": [
        {
          "internalType": "uint256",
          "name": "",
          "type": "uint256"
        }
      ],
      "stateMutability": "view",
      "type": "function"
    },
    {
      "inputs": [
        {
          "internalType": "string",
          "name": "_description",
          "type": "string"
        },
        {
          "internalType": "uint256",
          "name": "_value",
          "type": "uint256"
        },
        {
          "internalType": "address",
          "name": "_recipient",
          "type": "address"
        }
      ],
      "name": "createWithdrawalRequest",
      "outputs": [],
      "stateMutability": "nonpayable",
      "type": "function"
    },
    {
      "inputs": [],
      "name": "description",
      "outputs": [
        {
          "internalType": "string",
          "name": "",
          "type": "string"
        }
      ],
      "stateMutability": "view",
      "type": "function"
    },
    {
      "inputs": [],
      "name": "factory",
      "outputs": [
        {
          "internalType": "contract CollegeCampaignFactory",
          "name": "",
          "type": "address"
        }
      ],
      "stateMutability": "view",
      "type": "function"
    },
    {
      "inputs": [
        {
          "internalType": "uint256",
          "name": "index",
          "type": "uint256"
        }
      ],
      "name": "finalizeRequest",
      "outputs": [],
      "stateMutability": "nonpayable",
      "type": "function"
    },
    {
      "inputs": [],
      "name": "getRequestsCount",
      "outputs": [
        {
          "internalType": "uint256",
          "name": "",
          "type": "uint256"
        }
      ],
      "stateMutability": "view",
      "type": "function"
    },
    {
      "inputs": [],
      "name": "getSummary",
      "outputs": [
        {
          "internalType": "uint256",
          "name": "",
          "type": "uint256"
        },
        {
          "internalType": "uint256",
          "name": "",
          "type": "uint256"
        },
        {
          "internalType": "uint256",
          "name": "",
          "type": "uint256"
        },
        {
          "internalType": "address",
          "name": "",
          "type": "address"
        },
        {
          "internalType": "string",
          "name": "",
          "type": "string"
        },
        {
          "internalType": "string",
          "name": "",
          "type": "string"
        },
        {
          "internalType": "string",
          "name": "",
          "type": "string"
        },
        {
          "internalType": "uint256",
          "name": "",
          "type": "uint256"
        }
      ],
      "stateMutability": "view",
      "type": "function"
    },
    {
      "inputs": [],
      "name": "imageUrl",
      "outputs": [
        {
          "internalType": "string",
          "name": "",
          "type": "string"
        }
      ],
      "stateMutability": "view",
      "type": "function"
    },
    {
      "inputs": [],
      "name": "minimumContribution",
      "outputs": [
        {
          "internalType": "uint256",
          "name": "",
          "type": "uint256"
        }
      ],
      "stateMutability": "view",
      "type": "function"
    },
    {
      "inputs": [
        {
          "internalType": "uint256",
          "name": "",
          "type": "uint256"
        }
      ],
      "name": "requests",
      "outputs": [
        {
          "internalType": "string",
          "name": "description",
          "type": "string"
        },
        {
          "internalType": "uint256",
          "name": "value",
          "type": "uint256"
        },
        {
          "internalType": "address",
          "name": "recipient",
          "type": "address"
        },
        {
          "internalType": "bool",
          "name": "completed",
          "type": "bool"
        },
        {
          "internalType": "uint256",
          "name": "approvalCount",
          "type": "uint256"
        }
      ],
      "stateMutability": "view",
      "type": "function"
    },
    {
      "inputs": [],
      "name": "student",
      "outputs": [
        {
          "internalType": "address",
          "name": "",
          "type": "address"
        }
      ],
      "stateMutability": "view",
      "type": "function"
    },
    {
      "inputs": [],
      "name": "studentRollNumber",
      "outputs": [
        {
          "internalType": "string",
          "name": "",
          "type": "string"
        }
      ],
      "stateMutability": "view",
      "type": "function"
    },
    {
      "inputs": [],
      "name": "targetAmount",
      "outputs": [
        {
          "internalType": "uint256",
          "name": "",
          "type": "uint256"
        }
      ],
      "stateMutability": "view",
      "type": "function"
    },
    {
      "inputs": [],
      "name": "title",
      "outputs": [
        {
          "internalType": "string",
          "name": "",
          "type": "string"
        }
      ],
      "stateMutability": "view",
      "type": "function"
    }
  ],
  "bytecode": "0x608060405234801561001057600080fd5b506040516123b43803806123b483398181016040528101906100329190610317565b8760078190555086600160006101000a81548173ffffffffffffffffffffffffffffffffffffffff021916908373ffffffffffffffffffffffffffffffffffffffff16021790555085600390816100899190610654565b5084600490816100999190610654565b5083600590816100a99190610654565b508260068190555081600290816100c09190610654565b50806000806101000a81548173ffffffffffffffffffffffffffffffffffffffff021916908373ffffffffffffffffffffffffffffffffffffffff1602179055505050505050505050610726565b6000604051905090565b600080fd5b600080fd5b6000819050919050565b61013581610122565b811461014057600080fd5b50565b6000815190506101528161012c565b92915050565b600073ffffffffffffffffffffffffffffffffffffffff82169050919050565b600061018382610158565b9050919050565b61019381610178565b811461019e57600080fd5b50565b6000815190506101b08161018a565b92915050565b600080fd5b600080fd5b6000601f19601f8301169050919050565b7f4e487b7100000000000000000000000000000000000000000000000000000000600052604160045260246000fd5b610209826101c0565b810181811067ffffffffffffffff82111715610228576102276101d1565b5b80604052505050565b600061023b61010e565b90506102478282610200565b919050565b600067ffffffffffffffff821115610267576102666101d1565b5b610270826101c0565b9050602081019050919050565b60005b8381101561029b578082015181840152602081019050610280565b60008484015250505050565b60006102ba6102b58461024c565b610231565b9050828152602081018484840111156102d6576102d56101bb565b5b6102e184828561027d565b509392505050565b600082601f8301126102fe576102fd6101b6565b5b815161030e8482602086016102a7565b91505092915050565b600080600080600080600080610100898b03121561033857610337610118565b5b60006103468b828c01610143565b98505060206103578b828c016101a1565b975050604089015167ffffffffffffffff8111156103785761037761011d565b5b6103848b828c016102e9565b965050606089015167ffffffffffffffff8111156103a5576103a461011d565b5b6103b18b828c016102e9565b955050608089015167ffffffffffffffff8111156103d2576103d161011d565b5b6103de8b828c016102e9565b94505060a06103ef8b828c01610143565b93505060c089015167ffffffffffffffff8111156104105761040f61011d565b5b61041c8b828c016102e9565b92505060e061042d8b828c016101a1565b9150509295985092959890939650565b600081519050919050565b7f4e487b7100000000000000000000000000000000000000000000000000000000600052602260045260246000fd5b6000600282049050600182168061048f57607f821691505b6020821081036104a2576104a1610448565b5b50919050565b60008190508160005260206000209050919050565b60006020601f8301049050919050565b600082821b905092915050565b60006008830261050a7fffffffffffffffffffffffffffffffffffffffffffffffffffffffffffffffff826104cd565b61051486836104cd565b95508019841693508086168417925050509392505050565b6000819050919050565b600061055161054c61054784610122565b61052c565b610122565b9050919050565b6000819050919050565b61056b83610536565b61057f61057782610558565b8484546104da565b825550505050565b600090565b610594610587565b61059f818484610562565b505050565b5b818110156105c3576105b860008261058c565b6001810190506105a5565b5050565b601f821115610608576105d9816104a8565b6105e2846104bd565b810160208510156105f1578190505b6106056105fd856104bd565b8301826105a4565b50505b505050565b600082821c905092915050565b600061062b6000198460080261060d565b1980831691505092915050565b6000610644838361061a565b9150826002028217905092915050565b61065d8261043d565b67ffffffffffffffff811115610676576106756101d1565b5b6106808254610477565b61068b8282856105c7565b600060209050601f8311600181146106be57600084156106ac578287015190505b6106b68582610638565b86555061071e565b601f1984166106cc866104a8565b60005b828110156106f4578489015182556001820191506020850194506020810190506106cf565b86831015610711578489015161070d601f89168261061a565b8355505b6001600288020188555050505b505050505050565b611c7f806107356000396000f3fe6080604052600436106100fe5760003560e01c80637569b3d711610095578063a67353c711610064578063a67353c714610332578063aba831501461035d578063c45a015514610388578063d7bb99ba146103b3578063d7d1bbdb146103bd576100fe565b80637569b3d71461027057806381d12c581461029b578063937e09b1146102dc578063953b8fb814610307576100fe565b80634051ddac116100d15780634051ddac146101bd5780634a79d50c146101ef578063699450e81461021a5780637284e41614610245576100fe565b806303441006146101035780631f6d49421461012c57806322d0fb9a146101695780633410452a14610192575b600080fd5b34801561010f57600080fd5b5061012a6004803603810190610125919061105d565b6103e6565b005b34801561013857600080fd5b50610153600480360381019061014e91906110e8565b6105c5565b6040516101609190611130565b60405180910390f35b34801561017557600080fd5b50610190600480360381019061018b9190611291565b6105e5565b005b34801561019e57600080fd5b506101a7610767565b6040516101b4919061130f565b60405180910390f35b3480156101c957600080fd5b506101d2610774565b6040516101e69897969594939291906113b8565b60405180910390f35b3480156101fb57600080fd5b50610204610975565b604051610211919061144b565b60405180910390f35b34801561022657600080fd5b5061022f610a03565b60405161023c919061146d565b60405180910390f35b34801561025157600080fd5b5061025a610a29565b604051610267919061144b565b60405180910390f35b34801561027c57600080fd5b50610285610ab7565b604051610292919061130f565b60405180910390f35b3480156102a757600080fd5b506102c260048036038101906102bd919061105d565b610abd565b6040516102d3959493929190611488565b60405180910390f35b3480156102e857600080fd5b506102f1610bb8565b6040516102fe919061130f565b60405180910390f35b34801561031357600080fd5b5061031c610bbe565b604051610329919061130f565b60405180910390f35b34801561033e57600080fd5b50610347610bc4565b604051610354919061144b565b60405180910390f35b34801561036957600080fd5b50610372610c52565b60405161037f919061144b565b60405180910390f35b34801561039457600080fd5b5061039d610ce0565b6040516103aa9190611541565b60405180910390f35b6103bb610d04565b005b3480156103c957600080fd5b506103e460048036038101906103df919061105d565b610e0d565b005b600160009054906101000a900473ffffffffffffffffffffffffffffffffffffffff1673ffffffffffffffffffffffffffffffffffffffff163373ffffffffffffffffffffffffffffffffffffffff1614610476576040517f08c379a000000000000000000000000000000000000000000000000000000000815260040161046d906115a8565b60405180910390fd5b6000600a828154811061048c5761048b6115c8565b5b906000526020600020906005020190508060020160149054906101000a900460ff16156104ee576040517f08c379a00000000000000000000000000000000000000000000000000000000081526004016104e590611643565b60405180910390fd5b6000816003015411610535576040517f08c379a000000000000000000000000000000000000000000000000000000000815260040161052c906116d5565b60405180910390fd5b8060020160009054906101000a900473ffffffffffffffffffffffffffffffffffffffff1673ffffffffffffffffffffffffffffffffffffffff166108fc82600101549081150290604051600060405180830381858888f193505050501580156105a3573d6000803e3d6000fd5b5060018160020160146101000a81548160ff0219169083151502179055505050565b60086020528060005260406000206000915054906101000a900460ff1681565b600160009054906101000a900473ffffffffffffffffffffffffffffffffffffffff1673ffffffffffffffffffffffffffffffffffffffff163373ffffffffffffffffffffffffffffffffffffffff1614610675576040517f08c379a000000000000000000000000000000000000000000000000000000000815260040161066c906115a8565b60405180910390fd5b478211156106b8576040517f08c379a00000000000000000000000000000000000000000000000000000000081526004016106af90611741565b60405180910390fd5b6000600a6001816001815401808255809150500390600052602060002090600502019050838160000190816106ed9190611963565b50828160010181905550818160020160006101000a81548173ffffffffffffffffffffffffffffffffffffffff021916908373ffffffffffffffffffffffffffffffffffffffff16021790555060008160020160146101000a81548160ff0219169083151502179055506000816003018190555050505050565b6000600a80549050905090565b6000806000806060806060600060075447600a80549050600160009054906101000a900473ffffffffffffffffffffffffffffffffffffffff166003600460056006548380546107c390611790565b80601f01602080910402602001604051908101604052809291908181526020018280546107ef90611790565b801561083c5780601f106108115761010080835404028352916020019161083c565b820191906000526020600020905b81548152906001019060200180831161081f57829003601f168201915b5050505050935082805461084f90611790565b80601f016020809104026020016040519081016040528092919081815260200182805461087b90611790565b80156108c85780601f1061089d576101008083540402835291602001916108c8565b820191906000526020600020905b8154815290600101906020018083116108ab57829003601f168201915b505050505092508180546108db90611790565b80601f016020809104026020016040519081016040528092919081815260200182805461090790611790565b80156109545780601f1061092957610100808354040283529160200191610954565b820191906000526020600020905b81548152906001019060200180831161093757829003601f168201915b50505050509150975097509750975097509750975097509091929394959697565b6003805461098290611790565b80601f01602080910402602001604051908101604052809291908181526020018280546109ae90611790565b80156109fb5780601f106109d0576101008083540402835291602001916109fb565b820191906000526020600020905b8154815290600101906020018083116109de57829003601f168201915b505050505081565b600160009054906101000a900473ffffffffffffffffffffffffffffffffffffffff1681565b60048054610a3690611790565b80601f0160208091040260200160405190810160405280929190818152602001828054610a6290611790565b8015610aaf5780601f10610a8457610100808354040283529160200191610aaf565b820191906000526020600020905b815481529060010190602001808311610a9257829003601f168201915b505050505081565b60095481565b600a8181548110610acd57600080fd5b9060005260206000209060050201600091509050806000018054610af090611790565b80601f0160208091040260200160405190810160405280929190818152602001828054610b1c90611790565b8015610b695780601f10610b3e57610100808354040283529160200191610b69565b820191906000526020600020905b815481529060010190602001808311610b4c57829003601f168201915b5050505050908060010154908060020160009054906101000a900473ffffffffffffffffffffffffffffffffffffffff16908060020160149054906101000a900460ff16908060030154905085565b60075481565b60065481565b60028054610bd190611790565b80601f0160208091040260200160405190810160405280929190818152602001828054610bfd90611790565b8015610c4a5780601f10610c1f57610100808354040283529160200191610c4a565b820191906000526020600020905b815481529060010190602001808311610c2d57829003601f168201915b505050505081565b60058054610c5f90611790565b80601f0160208091040260200160405190810160405280929190818152602001828054610c8b90611790565b8015610cd85780601f10610cad57610100808354040283529160200191610cd8565b820191906000526020600020905b815481529060010190602001808311610cbb57829003601f168201915b505050505081565b60008054906101000a900473ffffffffffffffffffffffffffffffffffffffff1681565b600754341015610d49576040517f08c379a0000000000000000000000000000000000000000000000000000000008152600401610d4090611a81565b60405180910390fd5b600860003373ffffffffffffffffffffffffffffffffffffffff1673ffffffffffffffffffffffffffffffffffffffff16815260200190815260200160002060009054906101000a900460ff16610e0b576001600860003373ffffffffffffffffffffffffffffffffffffffff1673ffffffffffffffffffffffffffffffffffffffff16815260200190815260200160002060006101000a81548160ff02191690831515021790555060096000815480929190610e0590611ad0565b91905055505b565b60008054906101000a900473ffffffffffffffffffffffffffffffffffffffff1673ffffffffffffffffffffffffffffffffffffffff1663f0a47f78336040518263ffffffff1660e01b8152600401610e66919061146d565b602060405180830381865afa158015610e83573d6000803e3d6000fd5b505050506040513d601f19601f82011682018060405250810190610ea79190611b44565b610ee6576040517f08c379a0000000000000000000000000000000000000000000000000000000008152600401610edd90611bbd565b60405180910390fd5b6000600a8281548110610efc57610efb6115c8565b5b906000526020600020906005020190508060040160003373ffffffffffffffffffffffffffffffffffffffff1673ffffffffffffffffffffffffffffffffffffffff16815260200190815260200160002060009054906101000a900460ff1615610f9b576040517f08c379a0000000000000000000000000000000000000000000000000000000008152600401610f9290611c29565b60405180910390fd5b60018160040160003373ffffffffffffffffffffffffffffffffffffffff1673ffffffffffffffffffffffffffffffffffffffff16815260200190815260200160002060006101000a81548160ff02191690831515021790555080600301600081548092919061100a90611ad0565b91905055505050565b6000604051905090565b600080fd5b600080fd5b6000819050919050565b61103a81611027565b811461104557600080fd5b50565b60008135905061105781611031565b92915050565b6000602082840312156110735761107261101d565b5b600061108184828501611048565b91505092915050565b600073ffffffffffffffffffffffffffffffffffffffff82169050919050565b60006110b58261108a565b9050919050565b6110c5816110aa565b81146110d057600080fd5b50565b6000813590506110e2816110bc565b92915050565b6000602082840312156110fe576110fd61101d565b5b600061110c848285016110d3565b91505092915050565b60008115159050919050565b61112a81611115565b82525050565b60006020820190506111456000830184611121565b92915050565b600080fd5b600080fd5b6000601f19601f8301169050919050565b7f4e487b7100000000000000000000000000000000000000000000000000000000600052604160045260246000fd5b61119e82611155565b810181811067ffffffffffffffff821117156111bd576111bc611166565b5b80604052505050565b60006111d0611013565b90506111dc8282611195565b919050565b600067ffffffffffffffff8211156111fc576111fb611166565b5b61120582611155565b9050602081019050919050565b82818337600083830152505050565b600061123461122f846111e1565b6111c6565b9050828152602081018484840111156112505761124f611150565b5b61125b848285611212565b509392505050565b600082601f8301126112785761127761114b565b5b8135611288848260208601611221565b91505092915050565b6000806000606084860312156112aa576112a961101d565b5b600084013567ffffffffffffffff8111156112c8576112c7611022565b5b6112d486828701611263565b93505060206112e586828701611048565b92505060406112f6868287016110d3565b9150509250925092565b61130981611027565b82525050565b60006020820190506113246000830184611300565b92915050565b611333816110aa565b82525050565b600081519050919050565b600082825260208201905092915050565b60005b83811015611373578082015181840152602081019050611358565b60008484015250505050565b600061138a82611339565b6113948185611344565b93506113a4818560208601611355565b6113ad81611155565b840191505092915050565b6000610100820190506113ce600083018b611300565b6113db602083018a611300565b6113e86040830189611300565b6113f5606083018861132a565b8181036080830152611407818761137f565b905081810360a083015261141b818661137f565b905081810360c083015261142f818561137f565b905061143e60e0830184611300565b9998505050505050505050565b60006020820190508181036000830152611465818461137f565b905092915050565b6000602082019050611482600083018461132a565b92915050565b600060a08201905081810360008301526114a2818861137f565b90506114b16020830187611300565b6114be604083018661132a565b6114cb6060830185611121565b6114d86080830184611300565b9695505050505050565b6000819050919050565b60006115076115026114fd8461108a565b6114e2565b61108a565b9050919050565b6000611519826114ec565b9050919050565b600061152b8261150e565b9050919050565b61153b81611520565b82525050565b60006020820190506115566000830184611532565b92915050565b7f4f6e6c792073747564656e742063616e2063616c6c2074686973000000000000600082015250565b6000611592601a83611344565b915061159d8261155c565b602082019050919050565b600060208201905081810360008301526115c181611585565b9050919050565b7f4e487b7100000000000000000000000000000000000000000000000000000000600052603260045260246000fd5b7f5265717565737420616c726561647920636f6d706c6574656400000000000000600082015250565b600061162d601983611344565b9150611638826115f7565b602082019050919050565b6000602082019050818103600083015261165c81611620565b9050919050565b7f4e656564206174206c65617374206f6e65207465616368657220617070726f7660008201527f616c000000000000000000000000000000000000000000000000000000000000602082015250565b60006116bf602283611344565b91506116ca82611663565b604082019050919050565b600060208201905081810360008301526116ee816116b2565b9050919050565b7f496e73756666696369656e742066756e64730000000000000000000000000000600082015250565b600061172b601283611344565b9150611736826116f5565b602082019050919050565b6000602082019050818103600083015261175a8161171e565b9050919050565b7f4e487b7100000000000000000000000000000000000000000000000000000000600052602260045260246000fd5b600060028204905060018216806117a857607f821691505b6020821081036117bb576117ba611761565b5b50919050565b60008190508160005260206000209050919050565b60006020601f8301049050919050565b600082821b905092915050565b6000600883026118237fffffffffffffffffffffffffffffffffffffffffffffffffffffffffffffffff826117e6565b61182d86836117e6565b95508019841693508086168417925050509392505050565b600061186061185b61185684611027565b6114e2565b611027565b9050919050565b6000819050919050565b61187a83611845565b61188e61188682611867565b8484546117f3565b825550505050565b600090565b6118a3611896565b6118ae818484611871565b505050565b5b818110156118d2576118c760008261189b565b6001810190506118b4565b5050565b601f821115611917576118e8816117c1565b6118f1846117d6565b81016020851015611900578190505b61191461190c856117d6565b8301826118b3565b50505b505050565b600082821c905092915050565b600061193a6000198460080261191c565b1980831691505092915050565b60006119538383611929565b9150826002028217905092915050565b61196c82611339565b67ffffffffffffffff81111561198557611984611166565b5b61198f8254611790565b61199a8282856118d6565b600060209050601f8311600181146119cd57600084156119bb578287015190505b6119c58582611947565b865550611a2d565b601f1984166119db866117c1565b60005b82811015611a03578489015182556001820191506020850194506020810190506119de565b86831015611a205784890151611a1c601f891682611929565b8355505b6001600288020188555050505b505050505050565b7f436f6e747269627574696f6e20746f6f20736d616c6c00000000000000000000600082015250565b6000611a6b601683611344565b9150611a7682611a35565b602082019050919050565b60006020820190508181036000830152611a9a81611a5e565b9050919050565b7f4e487b7100000000000000000000000000000000000000000000000000000000600052601160045260246000fd5b6000611adb82611027565b91507fffffffffffffffffffffffffffffffffffffffffffffffffffffffffffffffff8203611b0d57611b0c611aa1565b5b600182019050919050565b611b2181611115565b8114611b2c57600080fd5b50565b600081519050611b3e81611b18565b92915050565b600060208284031215611b5a57611b5961101d565b5b6000611b6884828501611b2f565b91505092915050565b7f4f6e6c7920746561636865722063616e2063616c6c2074686973000000000000600082015250565b6000611ba7601a83611344565b9150611bb282611b71565b602082019050919050565b60006020820190508181036000830152611bd681611b9a565b9050919050565b7f416c726561647920617070726f76656400000000000000000000000000000000600082015250565b6000611c13601083611344565b9150611c1e82611bdd565b602082019050919050565b60006020820190508181036000830152611c4281611c06565b905091905056fea2646970667358221220e16b68e2baf26419bcd757f516010a2f4694fa40745653b2600bcf6d711f5a1064736f6c634300081a0033",
  "linkReferences": {},
  "deployedLinkReferences": {}
}