{
  "contractName": "CollegeCampaignFactory",
  "abi": [
    {
      "inputs": [],
      "stateMutability": "nonpayable",
      "type": "constructor"
    },
    {
      "inputs": [],
      "name": "admin",
      "outputs": [
        {
          "internalType": "address",
          "name": "",
          "type": "address"
        }
      ],
      "stateMutability": "view",
      "type": "function",
      "constant": true
    },
    {
      "inputs": [
        {
          "internalType": "uint256",
          "name": "",
          "type": "uint256"
        }
      ],
      "name": "deployedCampaigns",
      "outputs": [
        {
          "internalType": "address",
          "name": "",
          "type": "address"
        }
      ],
      "stateMutability": "view",
      "type": "function",
      "constant": true
    },
    {
      "inputs": [
        {
          "internalType": "address",
          "name": "",
          "type": "address"
        }
      ],
      "name": "teachers",
      "outputs": [
        {
          "internalType": "bool",
          "name": "",
          "type": "bool"
        }
      ],
      "stateMutability": "view",
      "type": "function",
      "constant": true
    },
    {
      "inputs": [
        {
          "internalType": "address",
          "name": "_teacher",
          "type": "address"
        }
      ],
      "name": "addTeacher",
      "outputs": [],
      "stateMutability": "nonpayable",
      "type": "function"
    },
    {
      "inputs": [
        {
          "internalType": "address",
          "name": "_teacher",
          "type": "address"
        }
      ],
      "name": "removeTeacher",
      "outputs": [],
      "stateMutability": "nonpayable",
      "type": "function"
    },
    {
      "inputs": [
        {
          "internalType": "uint256",
          "name": "minimumContribution",
          "type": "uint256"
        },
        {
          "internalType": "string",
          "name": "title",
          "type": "string"
        },
        {
          "internalType": "string",
          "name": "description",
          "type": "string"
        },
        {
          "internalType": "string",
          "name": "image",
          "type": "string"
        },
        {
          "internalType": "uint256",
          "name": "targetAmount",
          "type": "uint256"
        },
        {
          "internalType": "string",
          "name": "studentRoll",
          "type": "string"
        }
      ],
      "name": "createCampaign",
      "outputs": [],
      "stateMutability": "nonpayable",
      "type": "function"
    },
    {
      "inputs": [],
      "name": "getDeployedCampaigns",
      "outputs": [
        {
          "internalType": "address[]",
          "name": "",
          "type": "address[]"
        }
      ],
      "stateMutability": "view",
      "type": "function",
      "constant": true
    }
  ],
  "bytecode": "0x608060405234801561001057600080fd5b50600080546001600160a01b03191633179055611b80806100326000396000f3fe60806040523480156200001157600080fd5b5060043610620000875760003560e01c806352ff6846116200006257806352ff684614620000f2578063f0a47f781462000109578063f851a4401462000140578063f876bc49146200015457600080fd5b8063339d50a5146200008c5780633bc6e30914620000c05780634acb9d4f14620000d9575b600080fd5b620000a36200009d366004620003a0565b6200016b565b6040516001600160a01b0390911681526020015b60405180910390f35b620000d7620000d1366004620003ba565b62000196565b005b620000e362000215565b604051620000b79190620003ec565b620000d762000103366004620003ba565b62000279565b6200012f6200011a366004620003ba565b60026020526000908152604090205460ff1681565b6040519015158152602001620000b7565b600054620000a3906001600160a01b031681565b620000d762000165366004620004e6565b620002f1565b600181815481106200017c57600080fd5b6000918252602090912001546001600160a01b0316905081565b6000546001600160a01b03163314620001f15760405162461bcd60e51b81526020600482015260186024820152774f6e6c792061646d696e2063616e2063616c6c207468697360401b60448201526064015b60405180910390fd5b6001600160a01b03166000908152600260205260409020805460ff19166001179055565b606060018054806020026020016040519081016040528092919081815260200182805480156200026f57602002820191906000526020600020905b81546001600160a01b0316815260019091019060200180831162000250575b5050505050905090565b6000546001600160a01b03163314620002d05760405162461bcd60e51b81526020600482015260186024820152774f6e6c792061646d696e2063616e2063616c6c207468697360401b6044820152606401620001e8565b6001600160a01b03166000908152600260205260409020805460ff19169055565b60008633878787878730604051620003099062000392565b6200031c989796959493929190620005fa565b604051809103906000f08015801562000339573d6000803e3d6000fd5b506001805480820182556000919091527fb10e2d527612073b26eecdfd717e6a320cf44b4afac2b0732d9fcbe2b7fa0cf60180546001600160a01b0319166001600160a01b039290921691909117905550505050505050565b6114c1806200068a83390190565b600060208284031215620003b357600080fd5b5035919050565b600060208284031215620003cd57600080fd5b81356001600160a01b0381168114620003e557600080fd5b9392505050565b6020808252825182820181905260009190848201906040850190845b818110156200042f5783516001600160a01b03168352928401929184019160010162000408565b50909695505050505050565b634e487b7160e01b600052604160045260246000fd5b600082601f8301126200046357600080fd5b813567ffffffffffffffff808211156200048157620004816200043b565b604051601f8301601f19908116603f01168101908282118183101715620004ac57620004ac6200043b565b81604052838152866020858801011115620004c657600080fd5b836020870160208301376000602085830101528094505050505092915050565b60008060008060008060c087890312156200050057600080fd5b86359550602087013567ffffffffffffffff808211156200052057600080fd5b6200052e8a838b0162000451565b965060408901359150808211156200054557600080fd5b620005538a838b0162000451565b955060608901359150808211156200056a57600080fd5b620005788a838b0162000451565b94506080890135935060a08901359150808211156200059657600080fd5b50620005a589828a0162000451565b9150509295509295509295565b6000815180845260005b81811015620005da57602081850181015186830182015201620005bc565b506000602082860101526020601f19601f83011685010191505092915050565b8881526001600160a01b03888116602083015261010060408301819052600091620006288483018b620005b2565b915083820360608501526200063e828a620005b2565b91508382036080850152620006548289620005b2565b91508660a085015283820360c0850152620006708287620005b2565b925080851660e08501525050999850505050505050505056fe60806040523480156200001157600080fd5b50604051620014c1380380620014c18339810160408190526200003491620001a5565b6006889055600080546001600160a01b0319166001600160a01b038916179055600262000062878262000327565b50600362000071868262000327565b50600462000080858262000327565b506005839055600162000094838262000327565b50600780546001600160a01b0319166001600160a01b039290921691909117905550620003f395505050505050565b80516001600160a01b0381168114620000db57600080fd5b919050565b634e487b7160e01b600052604160045260246000fd5b600082601f8301126200010857600080fd5b81516001600160401b0380821115620001255762000125620000e0565b604051601f8301601f19908116603f01168101908282118183101715620001505762000150620000e0565b816040528381526020925086838588010111156200016d57600080fd5b600091505b8382101562000191578582018301518183018401529082019062000172565b600093810190920192909252949350505050565b600080600080600080600080610100898b031215620001c357600080fd5b88519750620001d560208a01620000c3565b60408a01519097506001600160401b0380821115620001f357600080fd5b620002018c838d01620000f6565b975060608b01519150808211156200021857600080fd5b620002268c838d01620000f6565b965060808b01519150808211156200023d57600080fd5b6200024b8c838d01620000f6565b955060a08b0151945060c08b01519150808211156200026957600080fd5b50620002788b828c01620000f6565b9250506200028960e08a01620000c3565b90509295985092959890939650565b600181811c90821680620002ad57607f821691505b602082108103620002ce57634e487b7160e01b600052602260045260246000fd5b50919050565b601f8211156200032257600081815260208120601f850160051c81016020861015620002fd5750805b601f850160051c820191505b818110156200031e5782815560010162000309565b5050505b505050565b81516001600160401b03811115620003435762000343620000e0565b6200035b8162000354845462000298565b84620002d4565b602080601f8311600181146200039357600084156200037a5750858301515b600019600386901b1c1916600185901b1785556200031e565b600085815260208120601f198616915b82811015620003c457888601518255948401946001909101908401620003a3565b5085821015620003e35787850151600019600388901b60f8161c191681555b5050505050600190811b01905550565b6110be80620004036000396000f3fe6080604052600436106101095760003560e01c806381d12c5811610095578063ab2850da11610064578063ab2850da146102d4578063aba831501461030f578063c45a015514610324578063d7bb99ba14610344578063d7d1bbdb1461034c57600080fd5b806381d12c5814610262578063937e09b114610293578063953b8fb8146102a9578063a67353c7146102bf57600080fd5b80634051ddac116100dc5780634051ddac146101b45780634a79d50c146101dd578063699450e8146101ff5780637284e416146102375780637569b3d71461024c57600080fd5b8063034410061461010e5780631f6d49421461013057806322d0fb9a146101755780633410452a14610195575b600080fd5b34801561011a57600080fd5b5061012e610129366004610c4b565b61036c565b005b34801561013c57600080fd5b5061016061014b366004610c80565b60086020526000908152604090205460ff1681565b60405190151581526020015b60405180910390f35b34801561018157600080fd5b5061012e610190366004610cb8565b610506565b3480156101a157600080fd5b50600a545b60405190815260200161016c565b3480156101c057600080fd5b506101c9610671565b60405161016c989796959493929190610dd3565b3480156101e957600080fd5b506101f2610863565b60405161016c9190610e45565b34801561020b57600080fd5b5060005461021f906001600160a01b031681565b6040516001600160a01b03909116815260200161016c565b34801561024357600080fd5b506101f26108f1565b34801561025857600080fd5b506101a660095481565b34801561026e57600080fd5b5061028261027d366004610c4b565b6108fe565b60405161016c959493929190610e58565b34801561029f57600080fd5b506101a660065481565b3480156102b557600080fd5b506101a660055481565b3480156102cb57600080fd5b506101f26109dd565b3480156102e057600080fd5b506101606102ef366004610e98565b600b60209081526000928352604080842090915290825290205460ff1681565b34801561031b57600080fd5b506101f26109ea565b34801561033057600080fd5b5060075461021f906001600160a01b031681565b61012e6109f7565b34801561035857600080fd5b5061012e610367366004610c4b565b610a89565b6000546001600160a01b031633146103cb5760405162461bcd60e51b815260206004820152601a60248201527f4f6e6c792073747564656e742063616e2063616c6c207468697300000000000060448201526064015b60405180910390fd5b6000600a82815481106103e0576103e0610ec4565b906000526020600020906004020190508060020160149054906101000a900460ff161561044f5760405162461bcd60e51b815260206004820152601960248201527f5265717565737420616c726561647920636f6d706c657465640000000000000060448201526064016103c2565b60008160030154116104ae5760405162461bcd60e51b815260206004820152602260248201527f4e656564206174206c65617374206f6e65207465616368657220617070726f76604482015261185b60f21b60648201526084016103c2565b600281015460018201546040516001600160a01b039092169181156108fc0291906000818181858888f193505050501580156104ee573d6000803e3d6000fd5b50600201805460ff60a01b1916600160a01b17905550565b6000546001600160a01b031633146105605760405162461bcd60e51b815260206004820152601a60248201527f4f6e6c792073747564656e742063616e2063616c6c207468697300000000000060448201526064016103c2565b478211156105a55760405162461bcd60e51b8152602060048201526012602482015271496e73756666696369656e742066756e647360701b60448201526064016103c2565b6040805160a081018252848152602081018490526001600160a01b0383169181019190915260006060820181905260808201819052600a80546001810182559152815160049091027fc65a7bb8d6351c1cf70c95a316cc6a92839c986682d98bc35f958f4883f9d2a80190819061061c9082610f63565b5060208201516001820155604082015160028201805460608501511515600160a01b026001600160a81b03199091166001600160a01b0390931692909217919091179055608090910151600390910155505050565b6000806000806060806060600060065447600a8054905060008054906101000a90046001600160a01b03166002600360046005548380546106b190610eda565b80601f01602080910402602001604051908101604052809291908181526020018280546106dd90610eda565b801561072a5780601f106106ff5761010080835404028352916020019161072a565b820191906000526020600020905b81548152906001019060200180831161070d57829003601f168201915b5050505050935082805461073d90610eda565b80601f016020809104026020016040519081016040528092919081815260200182805461076990610eda565b80156107b65780601f1061078b576101008083540402835291602001916107b6565b820191906000526020600020905b81548152906001019060200180831161079957829003601f168201915b505050505092508180546107c990610eda565b80601f01602080910402602001604051908101604052809291908181526020018280546107f590610eda565b80156108425780601f1061081757610100808354040283529160200191610842565b820191906000526020600020905b81548152906001019060200180831161082557829003601f168201915b50505050509150975097509750975097509750975097509091929394959697565b6002805461087090610eda565b80601f016020809104026020016040519081016040528092919081815260200182805461089c90610eda565b80156108e95780601f106108be576101008083540402835291602001916108e9565b820191906000526020600020905b8154815290600101906020018083116108cc57829003601f168201915b505050505081565b6003805461087090610eda565b600a818154811061090e57600080fd5b906000526020600020906004020160009150905080600001805461093190610eda565b80601f016020809104026020016040519081016040528092919081815260200182805461095d90610eda565b80156109aa5780601f1061097f576101008083540402835291602001916109aa565b820191906000526020600020905b81548152906001019060200180831161098d57829003601f168201915b5050505060018301546002840154600390940154929390926001600160a01b0382169250600160a01b90910460ff169085565b6001805461087090610eda565b6004805461087090610eda565b600654341015610a425760405162461bcd60e51b815260206004820152601660248201527510dbdb9d1c9a589d5d1a5bdb881d1bdbc81cdb585b1b60521b60448201526064016103c2565b3360009081526008602052604090205460ff16610a8757336000908152600860205260408120805460ff191660011790556009805491610a8183611023565b91905055505b565b60075460405133602482015260009182916001600160a01b039091169060440160408051601f198184030181529181526020820180516001600160e01b0316631e148fef60e31b17905251610ade919061104a565b600060405180830381855afa9150503d8060008114610b19576040519150601f19603f3d011682016040523d82523d6000602084013e610b1e565b606091505b5091509150818015610b3f575080806020019051810190610b3f9190611066565b610b8b5760405162461bcd60e51b815260206004820152601a60248201527f4f6e6c7920746561636865722063616e2063616c6c207468697300000000000060448201526064016103c2565b6000600a8481548110610ba057610ba0610ec4565b60009182526020808320878452600b825260408085203386529092529220546004909102909101915060ff1615610c0c5760405162461bcd60e51b815260206004820152601060248201526f105b1c9958591e48185c1c1c9bdd995960821b60448201526064016103c2565b6000848152600b602090815260408083203384529091528120805460ff1916600117905560038201805491610c4083611023565b919050555050505050565b600060208284031215610c5d57600080fd5b5035919050565b80356001600160a01b0381168114610c7b57600080fd5b919050565b600060208284031215610c9257600080fd5b610c9b82610c64565b9392505050565b634e487b7160e01b600052604160045260246000fd5b600080600060608486031215610ccd57600080fd5b833567ffffffffffffffff80821115610ce557600080fd5b818601915086601f830112610cf957600080fd5b813581811115610d0b57610d0b610ca2565b604051601f8201601f19908116603f01168101908382118183101715610d3357610d33610ca2565b81604052828152896020848701011115610d4c57600080fd5b82602086016020830137600060208483010152809750505050505060208401359150610d7a60408501610c64565b90509250925092565b60005b83811015610d9e578181015183820152602001610d86565b50506000910152565b60008151808452610dbf816020860160208601610d83565b601f01601f19169290920160200192915050565b60006101008a835289602084015288604084015260018060a01b0388166060840152806080840152610e0781840188610da7565b905082810360a0840152610e1b8187610da7565b905082810360c0840152610e2f8186610da7565b9150508260e08301529998505050505050505050565b602081526000610c9b6020830184610da7565b60a081526000610e6b60a0830188610da7565b6020830196909652506001600160a01b039390931660408401529015156060830152608090910152919050565b60008060408385031215610eab57600080fd5b82359150610ebb60208401610c64565b90509250929050565b634e487b7160e01b600052603260045260246000fd5b600181811c90821680610eee57607f821691505b602082108103610f0e57634e487b7160e01b600052602260045260246000fd5b50919050565b601f821115610f5e57600081815260208120601f850160051c81016020861015610f3b5750805b601f850160051c820191505b81811015610f5a57828155600101610f47565b5050505b505050565b815167ffffffffffffffff811115610f7d57610f7d610ca2565b610f9181610f8b8454610eda565b84610f14565b602080601f831160018114610fc65760008415610fae5750858301515b600019600386901b1c1916600185901b178555610f5a565b600085815260208120601f198616915b82811015610ff557888601518255948401946001909101908401610fd6565b50858210156110135787850151600019600388901b60f8161c191681555b5050505050600190811b01905550565b60006001820161104357634e487b7160e01b600052601160045260246000fd5b5060010190565b6000825161105c818460208701610d83565b9190910192915050565b60006020828403121561107857600080fd5b81518015158114610c9b57600080fdfea2646970667358221220705ec3ccc72cc83afb5de999d4460dce6f6bd7e69bcee83182deb77b1561762864736f6c63430008130033a2646970667358221220486caa262af776be2724da06624cc38bd806686ca571111bee79dab894d10a1b64736f6c63430008130033",
  "immutableReferences": {},
  "source": "// SPDX-License-Identifier: MIT\r\npragma solidity ^0.8.19;\r\n\r\ncontract CollegeCampaignFactory {\r\n    address public admin;\r\n    address[] public deployedCampaigns;\r\n    mapping(address => bool) public teachers;\r\n\r\n    constructor() {\r\n        admin = msg.sender; // admin can add teachers\r\n    }\r\n\r\n    modifier onlyAdmin() {\r\n        require(msg.sender == admin, \"Only admin can call this\");\r\n        _;\r\n    }\r\n\r\n    // Add a teacher\r\n    function addTeacher(address _teacher) external onlyAdmin {\r\n        teachers[_teacher] = true;\r\n    }\r\n\r\n    // Remove a teacher\r\n    function removeTeacher(address _teacher) external onlyAdmin {\r\n        teachers[_teacher] = false;\r\n    }\r\n\r\n    // Create a new student campaign using new keyword (avoiding import)\r\n    function createCampaign(\r\n        uint minimumContribution,\r\n        string memory title,\r\n        string memory description,\r\n        string memory image,\r\n        uint targetAmount,\r\n        string memory studentRoll\r\n    ) external {\r\n        // Deploy new campaign contract without importing\r\n        CollegeCampaign newCampaign = new CollegeCampaign(\r\n            minimumContribution,\r\n            msg.sender,\r\n            title,\r\n            description,\r\n            image,\r\n            targetAmount,\r\n            studentRoll,\r\n            address(this)\r\n        );\r\n        deployedCampaigns.push(address(newCampaign));\r\n    }\r\n\r\n    function getDeployedCampaigns() external view returns (address[] memory) {\r\n        return deployedCampaigns;\r\n    }\r\n}\r\n\r\n// Define the CollegeCampaign contract in the same file to avoid circular imports\r\ncontract CollegeCampaign {\r\n    struct WithdrawalRequest {\r\n        string description;\r\n        uint value;\r\n        address recipient;\r\n        bool completed;\r\n        uint approvalCount;\r\n    }\r\n\r\n    address public student;\r\n    string public studentRollNumber;\r\n    string public title;\r\n    string public description;\r\n    string public imageUrl;\r\n    uint public targetAmount;\r\n    uint public minimumContribution;\r\n    address public factory;\r\n\r\n    mapping(address => bool) public contributors;\r\n    uint public contributorsCount;\r\n\r\n    WithdrawalRequest[] public requests;\r\n    // mapping: request index => teacher address => approved\r\n    mapping(uint => mapping(address => bool)) public approvals;\r\n\r\n    modifier onlyStudent() {\r\n        require(msg.sender == student, \"Only student can call this\");\r\n        _;\r\n    }\r\n\r\n    modifier onlyTeacher() {\r\n        // Use interface call to factory to check if sender is teacher\r\n        (bool success, bytes memory data) = factory.staticcall(\r\n            abi.encodeWithSignature(\"teachers(address)\", msg.sender)\r\n        );\r\n        require(success && abi.decode(data, (bool)), \"Only teacher can call this\");\r\n        _;\r\n    }\r\n\r\n    constructor(\r\n        uint _minimum,\r\n        address _student,\r\n        string memory _title,\r\n        string memory _description,\r\n        string memory _image,\r\n        uint _target,\r\n        string memory _roll,\r\n        address factoryAddress\r\n    ) {\r\n        minimumContribution = _minimum;\r\n        student = _student;\r\n        title = _title;\r\n        description = _description;\r\n        imageUrl = _image;\r\n        targetAmount = _target;\r\n        studentRollNumber = _roll;\r\n        factory = factoryAddress;\r\n    }\r\n\r\n    // Anyone can contribute\r\n    function contribute() external payable {\r\n        require(msg.value >= minimumContribution, \"Contribution too small\");\r\n\r\n        if (!contributors[msg.sender]) {\r\n            contributors[msg.sender] = true;\r\n            contributorsCount++;\r\n        }\r\n    }\r\n\r\n    // Student creates withdrawal request\r\n    function createWithdrawalRequest(string memory _description, uint _value, address _recipient) external onlyStudent {\r\n        require(_value <= address(this).balance, \"Insufficient funds\");\r\n        requests.push(WithdrawalRequest({\r\n            description: _description,\r\n            value: _value,\r\n            recipient: _recipient,\r\n            completed: false,\r\n            approvalCount: 0\r\n        }));\r\n    }\r\n\r\n    // Teacher approves a request\r\n    function approveRequest(uint index) external onlyTeacher {\r\n        WithdrawalRequest storage request = requests[index];\r\n        require(!approvals[index][msg.sender], \"Already approved\");\r\n\r\n        approvals[index][msg.sender] = true;\r\n        request.approvalCount++;\r\n    }\r\n\r\n    // Student finalizes request once enough teachers approve\r\n    function finalizeRequest(uint index) external onlyStudent {\r\n        WithdrawalRequest storage request = requests[index];\r\n        require(!request.completed, \"Request already completed\");\r\n        require(request.approvalCount > 0, \"Need at least one teacher approval\");\r\n\r\n        payable(request.recipient).transfer(request.value);\r\n        request.completed = true;\r\n    }\r\n\r\n    // View number of requests\r\n    function getRequestsCount() external view returns (uint) {\r\n        return requests.length;\r\n    }\r\n\r\n    // Get campaign summary\r\n    function getSummary()\r\n        external\r\n        view\r\n        returns (\r\n            uint,\r\n            uint,\r\n            uint,\r\n            address,\r\n            string memory,\r\n            string memory,\r\n            string memory,\r\n            uint\r\n        )\r\n    {\r\n        return (\r\n            minimumContribution,\r\n            address(this).balance,\r\n            requests.length,\r\n            student,\r\n            title,\r\n            description,\r\n            imageUrl,\r\n            targetAmount\r\n        );\r\n    }\r\n}",
  "sourcePath": "C:\\Users\\Singh Computers\\Downloads\\project_crowdfunding-master\\project_crowdfunding-master\\web3\\contracts\\CollegeCampaignFactory.sol",
  "compiler": {
    "name": "solc",
    "version": "0.8.19+commit.7dd6d404.Emscripten.clang"
  },
  "schemaVersion": "3.4.16",
  "updatedAt": "2025-09-18T13:26:13.757Z",
  "networkType": "ethereum",
  "devdoc": {
    "kind": "dev",
    "methods": {},
    "version": 1
  },
  "userdoc": {
    "kind": "user",
    "methods": {},
    "version": 1
  }
}