{
  "contractName": "CollegeCampaign",
  "abi": [
    {
      "inputs": [
        {
          "internalType": "uint256",
          "name": "_minimum",
          "type": "uint256"
        },
        {
          "internalType": "address",
          "name": "_student",
          "type": "address"
        },
        {
          "internalType": "string",
          "name": "_title",
          "type": "string"
        },
        {
          "internalType": "string",
          "name": "_description",
          "type": "string"
        },
        {
          "internalType": "string",
          "name": "_image",
          "type": "string"
        },
        {
          "internalType": "uint256",
          "name": "_target",
          "type": "uint256"
        },
        {
          "internalType": "string",
          "name": "_roll",
          "type": "string"
        },
        {
          "internalType": "address",
          "name": "factoryAddress",
          "type": "address"
        }
      ],
      "stateMutability": "nonpayable",
      "type": "constructor"
    },
    {
      "inputs": [
        {
          "internalType": "uint256",
          "name": "",
          "type": "uint256"
        },
        {
          "internalType": "address",
          "name": "",
          "type": "address"
        }
      ],
      "name": "approvals",
      "outputs": [
        {
          "internalType": "bool",
          "name": "",
          "type": "bool"
        }
      ],
      "stateMutability": "view",
      "type": "function"
    },
    {
      "inputs": [
        {
          "internalType": "address",
          "name": "",
          "type": "address"
        }
      ],
      "name": "contributors",
      "outputs": [
        {
          "internalType": "bool",
          "name": "",
          "type": "bool"
        }
      ],
      "stateMutability": "view",
      "type": "function"
    },
    {
      "inputs": [],
      "name": "contributorsCount",
      "outputs": [
        {
          "internalType": "uint256",
          "name": "",
          "type": "uint256"
        }
      ],
      "stateMutability": "view",
      "type": "function"
    },
    {
      "inputs": [],
      "name": "description",
      "outputs": [
        {
          "internalType": "string",
          "name": "",
          "type": "string"
        }
      ],
      "stateMutability": "view",
      "type": "function"
    },
    {
      "inputs": [],
      "name": "factory",
      "outputs": [
        {
          "internalType": "address",
          "name": "",
          "type": "address"
        }
      ],
      "stateMutability": "view",
      "type": "function"
    },
    {
      "inputs": [],
      "name": "imageUrl",
      "outputs": [
        {
          "internalType": "string",
          "name": "",
          "type": "string"
        }
      ],
      "stateMutability": "view",
      "type": "function"
    },
    {
      "inputs": [],
      "name": "minimumContribution",
      "outputs": [
        {
          "internalType": "uint256",
          "name": "",
          "type": "uint256"
        }
      ],
      "stateMutability": "view",
      "type": "function"
    },
    {
      "inputs": [
        {
          "internalType": "uint256",
          "name": "",
          "type": "uint256"
        }
      ],
      "name": "requests",
      "outputs": [
        {
          "internalType": "string",
          "name": "description",
          "type": "string"
        },
        {
          "internalType": "uint256",
          "name": "value",
          "type": "uint256"
        },
        {
          "internalType": "address",
          "name": "recipient",
          "type": "address"
        },
        {
          "internalType": "bool",
          "name": "completed",
          "type": "bool"
        },
        {
          "internalType": "uint256",
          "name": "approvalCount",
          "type": "uint256"
        }
      ],
      "stateMutability": "view",
      "type": "function"
    },
    {
      "inputs": [],
      "name": "student",
      "outputs": [
        {
          "internalType": "address",
          "name": "",
          "type": "address"
        }
      ],
      "stateMutability": "view",
      "type": "function"
    },
    {
      "inputs": [],
      "name": "studentRollNumber",
      "outputs": [
        {
          "internalType": "string",
          "name": "",
          "type": "string"
        }
      ],
      "stateMutability": "view",
      "type": "function"
    },
    {
      "inputs": [],
      "name": "targetAmount",
      "outputs": [
        {
          "internalType": "uint256",
          "name": "",
          "type": "uint256"
        }
      ],
      "stateMutability": "view",
      "type": "function"
    },
    {
      "inputs": [],
      "name": "title",
      "outputs": [
        {
          "internalType": "string",
          "name": "",
          "type": "string"
        }
      ],
      "stateMutability": "view",
      "type": "function"
    },
    {
      "inputs": [],
      "name": "contribute",
      "outputs": [],
      "stateMutability": "payable",
      "type": "function"
    },
    {
      "inputs": [
        {
          "internalType": "string",
          "name": "_description",
          "type": "string"
        },
        {
          "internalType": "uint256",
          "name": "_value",
          "type": "uint256"
        },
        {
          "internalType": "address",
          "name": "_recipient",
          "type": "address"
        }
      ],
      "name": "createWithdrawalRequest",
      "outputs": [],
      "stateMutability": "nonpayable",
      "type": "function"
    },
    {
      "inputs": [
        {
          "internalType": "uint256",
          "name": "index",
          "type": "uint256"
        }
      ],
      "name": "approveRequest",
      "outputs": [],
      "stateMutability": "nonpayable",
      "type": "function"
    },
    {
      "inputs": [],
      "name": "getRequestsCount",
      "outputs": [
        {
          "internalType": "uint256",
          "name": "",
          "type": "uint256"
        }
      ],
      "stateMutability": "view",
      "type": "function"
    },
    {
      "inputs": [],
      "name": "getSummary",
      "outputs": [
        {
          "internalType": "uint256",
          "name": "",
          "type": "uint256"
        },
        {
          "internalType": "uint256",
          "name": "",
          "type": "uint256"
        },
        {
          "internalType": "uint256",
          "name": "",
          "type": "uint256"
        },
        {
          "internalType": "address",
          "name": "",
          "type": "address"
        },
        {
          "internalType": "string",
          "name": "",
          "type": "string"
        },
        {
          "internalType": "string",
          "name": "",
          "type": "string"
        },
        {
          "internalType": "string",
          "name": "",
          "type": "string"
        },
        {
          "internalType": "uint256",
          "name": "",
          "type": "uint256"
        }
      ],
      "stateMutability": "view",
      "type": "function"
    }
  ],
  "bytecode": "0x60806040523480156200001157600080fd5b50604051620013c4380380620013c48339810160408190526200003491620001a5565b6006889055600080546001600160a01b0319166001600160a01b038916179055600262000062878262000327565b50600362000071868262000327565b50600462000080858262000327565b506005839055600162000094838262000327565b50600780546001600160a01b0319166001600160a01b039290921691909117905550620003f395505050505050565b80516001600160a01b0381168114620000db57600080fd5b919050565b634e487b7160e01b600052604160045260246000fd5b600082601f8301126200010857600080fd5b81516001600160401b0380821115620001255762000125620000e0565b604051601f8301601f19908116603f01168101908282118183101715620001505762000150620000e0565b816040528381526020925086838588010111156200016d57600080fd5b600091505b8382101562000191578582018301518183018401529082019062000172565b600093810190920192909252949350505050565b600080600080600080600080610100898b031215620001c357600080fd5b88519750620001d560208a01620000c3565b60408a01519097506001600160401b0380821115620001f357600080fd5b620002018c838d01620000f6565b975060608b01519150808211156200021857600080fd5b620002268c838d01620000f6565b965060808b01519150808211156200023d57600080fd5b6200024b8c838d01620000f6565b955060a08b0151945060c08b01519150808211156200026957600080fd5b50620002788b828c01620000f6565b9250506200028960e08a01620000c3565b90509295985092959890939650565b600181811c90821680620002ad57607f821691505b602082108103620002ce57634e487b7160e01b600052602260045260246000fd5b50919050565b601f8211156200032257600081815260208120601f850160051c81016020861015620002fd5750805b601f850160051c820191505b818110156200031e5782815560010162000309565b5050505b505050565b81516001600160401b03811115620003435762000343620000e0565b6200035b8162000354845462000298565b84620002d4565b602080601f8311600181146200039357600084156200037a5750858301515b600019600386901b1c1916600185901b1785556200031e565b600085815260208120601f198616915b82811015620003c457888601518255948401946001909101908401620003a3565b5085821015620003e35787850151600019600388901b60f8161c191681555b5050505050600190811b01905550565b610fc180620004036000396000f3fe6080604052600436106100fe5760003560e01c806381d12c5811610095578063ab2850da11610064578063ab2850da146102a9578063aba83150146102e4578063c45a0155146102f9578063d7bb99ba14610319578063d7d1bbdb1461032157600080fd5b806381d12c5814610237578063937e09b114610268578063953b8fb81461027e578063a67353c71461029457600080fd5b80634a79d50c116100d15780634a79d50c146101b2578063699450e8146101d45780637284e4161461020c5780637569b3d71461022157600080fd5b80631f6d49421461010357806322d0fb9a146101485780633410452a1461016a5780634051ddac14610189575b600080fd5b34801561010f57600080fd5b5061013361011e366004610b6a565b60086020526000908152604090205460ff1681565b60405190151581526020015b60405180910390f35b34801561015457600080fd5b50610168610163366004610ba2565b610341565b005b34801561017657600080fd5b50600a545b60405190815260200161013f565b34801561019557600080fd5b5061019e6104b1565b60405161013f989796959493929190610cbd565b3480156101be57600080fd5b506101c76106a3565b60405161013f9190610d2f565b3480156101e057600080fd5b506000546101f4906001600160a01b031681565b6040516001600160a01b03909116815260200161013f565b34801561021857600080fd5b506101c7610731565b34801561022d57600080fd5b5061017b60095481565b34801561024357600080fd5b50610257610252366004610d42565b61073e565b60405161013f959493929190610d5b565b34801561027457600080fd5b5061017b60065481565b34801561028a57600080fd5b5061017b60055481565b3480156102a057600080fd5b506101c761081d565b3480156102b557600080fd5b506101336102c4366004610d9b565b600b60209081526000928352604080842090915290825290205460ff1681565b3480156102f057600080fd5b506101c761082a565b34801561030557600080fd5b506007546101f4906001600160a01b031681565b610168610837565b34801561032d57600080fd5b5061016861033c366004610d42565b6108c9565b6000546001600160a01b031633146103a05760405162461bcd60e51b815260206004820152601a60248201527f4f6e6c792073747564656e742063616e2063616c6c207468697300000000000060448201526064015b60405180910390fd5b478211156103e55760405162461bcd60e51b8152602060048201526012602482015271496e73756666696369656e742066756e647360701b6044820152606401610397565b6040805160a081018252848152602081018490526001600160a01b0383169181019190915260006060820181905260808201819052600a80546001810182559152815160049091027fc65a7bb8d6351c1cf70c95a316cc6a92839c986682d98bc35f958f4883f9d2a80190819061045c9082610e50565b5060208201516001820155604082015160028201805460608501511515600160a01b026001600160a81b03199091166001600160a01b0390931692909217919091179055608090910151600390910155505050565b6000806000806060806060600060065447600a8054905060008054906101000a90046001600160a01b03166002600360046005548380546104f190610dc7565b80601f016020809104026020016040519081016040528092919081815260200182805461051d90610dc7565b801561056a5780601f1061053f5761010080835404028352916020019161056a565b820191906000526020600020905b81548152906001019060200180831161054d57829003601f168201915b5050505050935082805461057d90610dc7565b80601f01602080910402602001604051908101604052809291908181526020018280546105a990610dc7565b80156105f65780601f106105cb576101008083540402835291602001916105f6565b820191906000526020600020905b8154815290600101906020018083116105d957829003601f168201915b5050505050925081805461060990610dc7565b80601f016020809104026020016040519081016040528092919081815260200182805461063590610dc7565b80156106825780601f1061065757610100808354040283529160200191610682565b820191906000526020600020905b81548152906001019060200180831161066557829003601f168201915b50505050509150975097509750975097509750975097509091929394959697565b600280546106b090610dc7565b80601f01602080910402602001604051908101604052809291908181526020018280546106dc90610dc7565b80156107295780601f106106fe57610100808354040283529160200191610729565b820191906000526020600020905b81548152906001019060200180831161070c57829003601f168201915b505050505081565b600380546106b090610dc7565b600a818154811061074e57600080fd5b906000526020600020906004020160009150905080600001805461077190610dc7565b80601f016020809104026020016040519081016040528092919081815260200182805461079d90610dc7565b80156107ea5780601f106107bf576101008083540402835291602001916107ea565b820191906000526020600020905b8154815290600101906020018083116107cd57829003601f168201915b5050505060018301546002840154600390940154929390926001600160a01b0382169250600160a01b90910460ff169085565b600180546106b090610dc7565b600480546106b090610dc7565b6006543410156108825760405162461bcd60e51b815260206004820152601660248201527510dbdb9d1c9a589d5d1a5bdb881d1bdbc81cdb585b1b60521b6044820152606401610397565b3360009081526008602052604090205460ff166108c757336000908152600860205260408120805460ff1916600117905560098054916108c183610f10565b91905055505b565b60075460405133602482015260009182916001600160a01b039091169060440160408051601f198184030181529181526020820180516001600160e01b0316631e148fef60e31b1790525161091e9190610f37565b600060405180830381855afa9150503d8060008114610959576040519150601f19603f3d011682016040523d82523d6000602084013e61095e565b606091505b509150915081801561097f57508080602001905181019061097f9190610f53565b6109cb5760405162461bcd60e51b815260206004820152601a60248201527f4f6e6c7920746561636865722063616e2063616c6c20746869730000000000006044820152606401610397565b6000600a84815481106109e0576109e0610f75565b906000526020600020906004020190508060020160149054906101000a900460ff1615610a4f5760405162461bcd60e51b815260206004820152601960248201527f5265717565737420616c726561647920636f6d706c65746564000000000000006044820152606401610397565b6000848152600b6020908152604080832033845290915290205460ff1615610aac5760405162461bcd60e51b815260206004820152601060248201526f105b1c9958591e48185c1c1c9bdd995960821b6044820152606401610397565b6000848152600b602090815260408083203384529091528120805460ff1916600117905560038201805491610ae083610f10565b91905055508060030154600103610b4857600281015460018201546040516001600160a01b039092169181156108fc0291906000818181858888f19350505050158015610b31573d6000803e3d6000fd5b5060028101805460ff60a01b1916600160a01b1790555b50505050565b80356001600160a01b0381168114610b6557600080fd5b919050565b600060208284031215610b7c57600080fd5b610b8582610b4e565b9392505050565b634e487b7160e01b600052604160045260246000fd5b600080600060608486031215610bb757600080fd5b833567ffffffffffffffff80821115610bcf57600080fd5b818601915086601f830112610be357600080fd5b813581811115610bf557610bf5610b8c565b604051601f8201601f19908116603f01168101908382118183101715610c1d57610c1d610b8c565b81604052828152896020848701011115610c3657600080fd5b82602086016020830137600060208483010152809750505050505060208401359150610c6460408501610b4e565b90509250925092565b60005b83811015610c88578181015183820152602001610c70565b50506000910152565b60008151808452610ca9816020860160208601610c6d565b601f01601f19169290920160200192915050565b60006101008a835289602084015288604084015260018060a01b0388166060840152806080840152610cf181840188610c91565b905082810360a0840152610d058187610c91565b905082810360c0840152610d198186610c91565b9150508260e08301529998505050505050505050565b602081526000610b856020830184610c91565b600060208284031215610d5457600080fd5b5035919050565b60a081526000610d6e60a0830188610c91565b6020830196909652506001600160a01b039390931660408401529015156060830152608090910152919050565b60008060408385031215610dae57600080fd5b82359150610dbe60208401610b4e565b90509250929050565b600181811c90821680610ddb57607f821691505b602082108103610dfb57634e487b7160e01b600052602260045260246000fd5b50919050565b601f821115610e4b57600081815260208120601f850160051c81016020861015610e285750805b601f850160051c820191505b81811015610e4757828155600101610e34565b5050505b505050565b815167ffffffffffffffff811115610e6a57610e6a610b8c565b610e7e81610e788454610dc7565b84610e01565b602080601f831160018114610eb35760008415610e9b5750858301515b600019600386901b1c1916600185901b178555610e47565b600085815260208120601f198616915b82811015610ee257888601518255948401946001909101908401610ec3565b5085821015610f005787850151600019600388901b60f8161c191681555b5050505050600190811b01905550565b600060018201610f3057634e487b7160e01b600052601160045260246000fd5b5060010190565b60008251610f49818460208701610c6d565b9190910192915050565b600060208284031215610f6557600080fd5b81518015158114610b8557600080fd5b634e487b7160e01b600052603260045260246000fdfea2646970667358221220ec373eebd42472913c051935da95bbea70b3b05a7ff616e45de4c63c086f891864736f6c63430008130033",
  "immutableReferences": {},
  "source": "// SPDX-License-Identifier: MIT\r\npragma solidity ^0.8.19;\r\n\r\ncontract CollegeCampaignFactory {\r\n    address public admin;\r\n    address[] public deployedCampaigns;\r\n    mapping(address => bool) public teachers;\r\n\r\n    constructor() {\r\n        admin = msg.sender; // admin can add teachers\r\n    }\r\n\r\n    modifier onlyAdmin() {\r\n        require(msg.sender == admin, \"Only admin can call this\");\r\n        _;\r\n    }\r\n\r\n    // Add a teacher\r\n    function addTeacher(address _teacher) external onlyAdmin {\r\n        teachers[_teacher] = true;\r\n    }\r\n\r\n    // Remove a teacher\r\n    function removeTeacher(address _teacher) external onlyAdmin {\r\n        teachers[_teacher] = false;\r\n    }\r\n\r\n    // Create a new student campaign using new keyword (avoiding import)\r\n    function createCampaign(\r\n        uint minimumContribution,\r\n        string memory title,\r\n        string memory description,\r\n        string memory image,\r\n        uint targetAmount,\r\n        string memory studentRoll\r\n    ) external {\r\n        // Deploy new campaign contract without importing\r\n        CollegeCampaign newCampaign = new CollegeCampaign(\r\n            minimumContribution,\r\n            msg.sender,\r\n            title,\r\n            description,\r\n            image,\r\n            targetAmount,\r\n            studentRoll,\r\n            address(this)\r\n        );\r\n        deployedCampaigns.push(address(newCampaign));\r\n    }\r\n\r\n    function getDeployedCampaigns() external view returns (address[] memory) {\r\n        return deployedCampaigns;\r\n    }\r\n}\r\n\r\n// Define the CollegeCampaign contract in the same file to avoid circular imports\r\ncontract CollegeCampaign {\r\n    struct WithdrawalRequest {\r\n        string description;\r\n        uint value;\r\n        address recipient;\r\n        bool completed;\r\n        uint approvalCount;\r\n    }\r\n\r\n    address public student;\r\n    string public studentRollNumber;\r\n    string public title;\r\n    string public description;\r\n    string public imageUrl;\r\n    uint public targetAmount;\r\n    uint public minimumContribution;\r\n    address public factory;\r\n\r\n    mapping(address => bool) public contributors;\r\n    uint public contributorsCount;\r\n\r\n    WithdrawalRequest[] public requests;\r\n    // mapping: request index => teacher address => approved\r\n    mapping(uint => mapping(address => bool)) public approvals;\r\n\r\n    modifier onlyStudent() {\r\n        require(msg.sender == student, \"Only student can call this\");\r\n        _;\r\n    }\r\n\r\n    modifier onlyTeacher() {\r\n        // Use interface call to factory to check if sender is teacher\r\n        (bool success, bytes memory data) = factory.staticcall(\r\n            abi.encodeWithSignature(\"teachers(address)\", msg.sender)\r\n        );\r\n        require(success && abi.decode(data, (bool)), \"Only teacher can call this\");\r\n        _;\r\n    }\r\n\r\n    constructor(\r\n        uint _minimum,\r\n        address _student,\r\n        string memory _title,\r\n        string memory _description,\r\n        string memory _image,\r\n        uint _target,\r\n        string memory _roll,\r\n        address factoryAddress\r\n    ) {\r\n        minimumContribution = _minimum;\r\n        student = _student;\r\n        title = _title;\r\n        description = _description;\r\n        imageUrl = _image;\r\n        targetAmount = _target;\r\n        studentRollNumber = _roll;\r\n        factory = factoryAddress;\r\n    }\r\n\r\n    // Anyone can contribute\r\n    function contribute() external payable {\r\n        require(msg.value >= minimumContribution, \"Contribution too small\");\r\n\r\n        if (!contributors[msg.sender]) {\r\n            contributors[msg.sender] = true;\r\n            contributorsCount++;\r\n        }\r\n    }\r\n\r\n    // Student creates withdrawal request\r\n    function createWithdrawalRequest(string memory _description, uint _value, address _recipient) external onlyStudent {\r\n        require(_value <= address(this).balance, \"Insufficient funds\");\r\n        requests.push(WithdrawalRequest({\r\n            description: _description,\r\n            value: _value,\r\n            recipient: _recipient,\r\n            completed: false,\r\n            approvalCount: 0\r\n        }));\r\n    }\r\n\r\n    // Teacher approves a request and automatically sends ETH to recipient\r\n    function approveRequest(uint index) external onlyTeacher {\r\n        WithdrawalRequest storage request = requests[index];\r\n        require(!request.completed, \"Request already completed\");\r\n        require(!approvals[index][msg.sender], \"Already approved\");\r\n\r\n        approvals[index][msg.sender] = true;\r\n        request.approvalCount++;\r\n        \r\n        // Automatically send ETH to recipient after first approval\r\n        if (request.approvalCount == 1) {\r\n            payable(request.recipient).transfer(request.value);\r\n            request.completed = true;\r\n        }\r\n    }\r\n\r\n    // View number of requests\r\n    function getRequestsCount() external view returns (uint) {\r\n        return requests.length;\r\n    }\r\n\r\n    // Get campaign summary\r\n    function getSummary()\r\n        external\r\n        view\r\n        returns (\r\n            uint,\r\n            uint,\r\n            uint,\r\n            address,\r\n            string memory,\r\n            string memory,\r\n            string memory,\r\n            uint\r\n        )\r\n    {\r\n        return (\r\n            minimumContribution,\r\n            address(this).balance,\r\n            requests.length,\r\n            student,\r\n            title,\r\n            description,\r\n            imageUrl,\r\n            targetAmount\r\n        );\r\n    }\r\n}",
  "sourcePath": "C:\\Users\\Singh Computers\\Downloads\\project_crowdfunding-master\\project_crowdfunding-master\\web3\\contracts\\CollegeCampaignFactory.sol",
  "compiler": {
    "name": "solc",
    "version": "0.8.19+commit.7dd6d404.Emscripten.clang"
  },
  "schemaVersion": "3.4.16",
  "updatedAt": "2025-09-17T04:41:23.400Z",
  "devdoc": {
    "kind": "dev",
    "methods": {},
    "version": 1
  },
  "userdoc": {
    "kind": "user",
    "methods": {},
    "version": 1
  }
}