{
  "contractName": "SimpleTest",
  "abi": [
    {
      "inputs": [],
      "stateMutability": "nonpayable",
      "type": "constructor"
    },
    {
      "inputs": [],
      "name": "owner",
      "outputs": [
        {
          "internalType": "address",
          "name": "",
          "type": "address"
        }
      ],
      "stateMutability": "view",
      "type": "function",
      "constant": true
    },
    {
      "inputs": [],
      "name": "getOwner",
      "outputs": [
        {
          "internalType": "address",
          "name": "",
          "type": "address"
        }
      ],
      "stateMutability": "view",
      "type": "function",
      "constant": true
    }
  ],
  "bytecode": "0x6080604052348015600f57600080fd5b50600080546001600160a01b0319163317905560a8806100306000396000f3fe6080604052348015600f57600080fd5b506004361060325760003560e01c8063893d20e81460375780638da5cb5b146060575b600080fd5b6000546001600160a01b03165b6040516001600160a01b03909116815260200160405180910390f35b6000546044906001600160a01b03168156fea2646970667358221220f9c88a092f4a60aae8e87e43ccb6719057e3bc34bc807914b13079a7e03dfb7564736f6c63430008130033",
  "immutableReferences": {},
  "source": "// SPDX-License-Identifier: MIT\r\npragma solidity ^0.8.19;\r\n\r\ncontract SimpleTest {\r\n    address public owner;\r\n    \r\n    constructor() {\r\n        owner = msg.sender;\r\n    }\r\n    \r\n    function getOwner() external view returns (address) {\r\n        return owner;\r\n    }\r\n}",
  "sourcePath": "C:\\Users\\abhis\\Desktop\\projects\\collge-crowdfunding-web3\\College-Crowdfunding-Project-2\\web3\\contracts\\SimpleTest.sol",
  "compiler": {
    "name": "solc",
    "version": "0.8.19+commit.7dd6d404.Emscripten.clang"
  },
  "schemaVersion": "3.4.16",
  "updatedAt": "2025-10-03T10:44:39.365Z",
  "networkType": "ethereum",
  "devdoc": {
    "kind": "dev",
    "methods": {},
    "version": 1
  },
  "userdoc": {
    "kind": "user",
    "methods": {},
    "version": 1
  }
}